:100000000C9462000C948A000C948A000C948A0070
:100010000C948A000C948A000C948A000C948A0038
:100020000C948A000C948A000C948A000C948A0028
:100030000C948A000C948A000C948A000C948A0018
:100040000C9461060C948A000C942F060C940906FB
:100050000C948A000C948A000C948A000C948A00F8
:100060000C948A000C948A000000000024002700F1
:100070002A0000000000250028002B0000000000DE
:1000800023002600290004040404040404040202DA
:100090000202020203030303030301020408102007
:1000A0004080010204081020010204081020000012
:1000B0000008000201000003040700000000000027
:1000C0000000AB0611241FBECFEFD8E0DEBFCDBFCE
:1000D00011E0A0E0B1E0E0EBF6E102C005900D9286
:1000E000A037B107D9F722E0A0E7B1E001C01D9227
:1000F000A734B207E1F710E0C2E6D0E004C02197D0
:10010000FE010E94500BC136D107C9F70E94F506C7
:100110000C94560B0C940000AF92BF92CF92DF92DA
:10012000EF92FF920F931F93CF93DF936C017B01AC
:100130008B01040F151FEB015E01AE18BF08C0173D
:10014000D10759F06991D601ED91FC910190F081B0
:10015000E02DC6010995892B79F7C501DF91CF9173
:100160001F910F91FF90EF90DF90CF90BF90AF90D5
:100170000895FC01538D448D252F30E0842F90E0AD
:10018000821B930B541710F0CF9608950197089592
:10019000FC01918D828D981761F0A28DAE0FBF2F5B
:1001A000B11D5D968C91928D9F5F9F73928F90E0B1
:1001B00008958FEF9FEF0895FC01918D828D981720
:1001C00031F0828DE80FF11D858D90E008958FEF5D
:1001D0009FEF0895FC01918D228D892F90E0805C26
:1001E0009F4F821B91098F739927089582E991E0AF
:1001F0000E94EA0021E0892B09F420E0822F089573
:1002000080E090E0892B29F00E94F60081110C9487
:1002100000000895FC01A48DA80FB92FB11DA35AA9
:10022000BF4F2C91848D90E001968F739927848F16
:10023000A689B7892C93A089B1898C918370806439
:100240008C93938D848D981306C00288F389E02DDA
:1002500080818F7D80830895EF92FF920F931F938B
:10026000CF93DF93EC0181E0888F9B8D8C8D981369
:100270001AC0E889F989808185FF15C09FB7F89475
:10028000EE89FF896083E889F989808183708064C1
:1002900080839FBF81E090E0DF91CF911F910F910C
:1002A000FF90EF900895F62E0B8D10E00F5F1F4F1B
:1002B0000F731127E02E8C8D8E110CC00FB607FC2A
:1002C000FACFE889F989808185FFF5CFCE010E94B8
:1002D0000A01F1CFEB8DEC0FFD2FF11DE35AFF4F1B
:1002E000F0829FB7F8940B8FEA89FB898081806246
:1002F000CFCFCF93DF93EC01888D8823B9F0AA8903
:10030000BB89E889F9898C9185FD03C0808186FDD0
:100310000DC00FB607FCF7CF8C9185FFF2CF80811F
:1003200085FFEDCFCE010E940A01E9CFDF91CF9189
:100330000895833081F028F4813099F08230A9F05B
:1003400008958730A9F08830C9F08430B1F48091E5
:1003500080008F7D03C0809180008F778093800024
:10036000089584B58F7784BD089584B58F7DFBCFC4
:100370008091B0008F778093B00008958091B00095
:100380008F7DF9CFCF93DF93E6EBF0E08491E2EA43
:10039000F0E0D491EEE8F0E0C491CC23A1F081111B
:1003A0000E949901EC2FF0E0EE0FFF1FE458FF4F81
:1003B000A591B491EC91ED2381E090E009F480E007
:1003C000DF91CF91089580E090E0FACF1F93CF9313
:1003D000DF93282F30E0F901E255FF4F8491F901B6
:1003E000E656FF4FD491F901EA57FF4FC491CC2351
:1003F000A9F0162F81110E949901EC2FF0E0EE0F69
:10040000FF1FEE58FF4FA591B4918FB7F894EC9170
:10041000111108C0D095DE23DC938FBFDF91CF91FF
:100420001F910895DE2BF8CFCF93DF9390E0FC016E
:10043000E656FF4F24918A579F4FFC0184918823F1
:10044000D1F090E0880F991FFC01E859FF4FA5916A
:10045000B491FC01EE58FF4FC591D49161110EC0CB
:100460009FB7F8948C91E22FE0958E238C9328818E
:10047000E223E8839FBFDF91CF9108958FB7F8946F
:10048000EC91E22BEC938FBFF6CF8E50806480937B
:100490007C0080917A00806480937A0080917A0059
:1004A00086FDFCCF809178009091790008950895A1
:1004B00090E080E0089560937E0170937F018093C7
:1004C000800190938101645D7E4F8F4F9F4F6093B9
:1004D0007A0170937B0180937C0190937D0182E08F
:1004E00090E090937901809378012FB7F8948091F0
:1004F000870190918801A0918901B0918A012FBF55
:100500008093740190937501A0937601B093770165
:100510000895CF92DF92EF92FF920F931F938FB7C0
:10052000F894C0908701D0908801E0908901F09004
:100530008A018FBF0091740110917501209176019D
:1005400030917701C01AD10AE20AF30A60917E0164
:1005500070917F01809180019091810148EEC416D5
:1005600043E0D406E104F104C8F06F5F7F4F8F4F82
:100570009F4F60937E0170937F01809380019093E1
:10058000810108511C4F2F4F3F4F0093740110936E
:1005900075012093760130937701C1CF1F910F91A0
:1005A000FF90EF90DF90CF9008954F925F926F92FF
:1005B0007F928F929F92AF92BF92CF92DF92EF92F3
:1005C000FF920F931F93CF93DF934B015C018091B8
:1005D000700190917101A0917201B0917301881521
:1005E0009905AA05BB0509F4C6C08CE3C82ED12C19
:1005F000E12CF12CC501A70196010E9454096093DA
:100600008B01CA01B901A70196010E9454096093A8
:100610008C01C501B40120E13EE040E050E00E94C1
:100620005409CA01B90128E130E040E050E00E94DD
:10063000540960938D01C501B40120E831E541E022
:1006400050E00E94540969017A01CA01B9016C5F46
:100650007F4F8F4F9F4F27E030E040E050E00E94F7
:1006600054096F5F60938E01412C512C320140E0A0
:1006700004E610E0C0E9D1E0242F30E02E54384FDA
:10068000F901E370FF273097F9F4C901B8010E941E
:10069000280B892B31F4C901BE010E94280B892B3C
:1006A00099F48EE691E0A0E0B0E0480E591E6A1E73
:1006B0007B1ED301C201AA27BB27C816D906EA06AA
:1006C000FB0638F04F5FD8CF8DE691E0A0E0B0E0B8
:1006D000ECCF40939101C90164E670E00E94280BC1
:1006E000EC01C90160E971E00E94280B309721F408
:1006F0002097D9F40097C9F04DE651E060E070E032
:10070000441A550A660A770AC418D508E608F70895
:10071000A0E0B1E020E0213069F43097E9F52097BE
:1007200011F40097C9F54DE106C04EE651E060E0D6
:1007300070E0E6CF4C9150E070E060E031E0320FC5
:10074000C416D506E606F70640F0C41AD50AE60A2E
:10075000F70A1196232F3C30F1F62F5F209390017A
:10076000C394C0928F018092700190927101A09207
:100770007201B0927301DF91CF911F910F91FF90A1
:10078000EF90DF90CF90BF90AF909F908F907F9031
:100790006F905F904F9008954CE1CDCF0E948902F9
:1007A0000E94D50280918B0190E008950E948902F9
:1007B0000E94D50280918C0190E008950E948902E8
:1007C0000E94D50280918D0190E008958EE00E94F4
:1007D0004502BC01990F880B990B0E942F0A2AE051
:1007E00038E240EA5BE30E94BB0A2AE037ED43E2CD
:1007F0005CE30E9485090E94F709CB0108958FE010
:100800000E9445029C01990F440B550B2F5F33400A
:1008100041095109A4E6B0E00E94490921E03CEFFA
:100820004FEF5FEF0E942A09C9010895CF93DF932C
:10083000EC0160E08E810E94E60161E08E810E9401
:10084000E60160E08E810E94E6018BE891E001976D
:10085000F1F7DF91CF910895CF92DF92EF92FF925F
:100860000F931F93CF93DF936C017C0187E0E80E19
:10087000F11CD0E0C0E0062F10E0B8010C2E02C041
:10088000759567950A94E2F76170F70181917F0190
:100890000E94E6012196C430D10579F7C601DF91A7
:1008A000CF911F910F91FF90EF90DF90CF900C941C
:1008B0001604CF92DF92EF92FF920F931F93CF9384
:1008C000DF93EC01F62E642F8C810E94E6018D816E
:1008D0008F3F19F060E00E94E6010F2D10E08F8538
:1008E00084FF25C06E0187E0C80ED11CF12CE12CDD
:1008F000B8010E2C02C0759567950A94E2F76170F5
:10090000F60181916F010E94E601FFEFEF1AFF0AE5
:1009100088E0E816F10461F7CE01DF91CF911F91D5
:100920000F91FF90EF90DF90CF900C941604B801D8
:1009300084E0759567958A95E1F7CE010E942C04B5
:100940006F2DCE01DF91CF911F910F91FF90EF900E
:10095000DF90CF900C942C0440E0682F8FE292E05F
:100960000C945904CF93DF93823029F490913E0286
:10097000986090933E02809342021092430280E47A
:100980008093440280E18093450280E58093460293
:1009900061E0809133020E941402809134028F3F03
:1009A00019F061E00E94140261E0809135020E941A
:1009B0001402CFE2D2E09E012F52324080913E02DB
:1009C00084FD0BC084E090E021962817390744F499
:1009D00061E08E810E941402EECF88E090E0F4CFB7
:1009E0008BE39DE00197F1F760E0809133020E9474
:1009F000E60160E0809135020E94E60180913402B8
:100A00008F3F19F060E00E94E60180913E0284FD74
:100A100039C063E08FE292E00E942C04CBE4D6E47C
:100A2000CE010197F1F763E08FE292E00E942C047F
:100A30002197F1F763E08FE292E00E942C0483E5B6
:100A400092E00197F1F762E08FE292E00E942C04BD
:100A500080913E0280620E94AC0484E080933F0259
:100A60008CE00E94AC0481E00E94AC048BE39FE127
:100A70000197F1F782E08093400286E0DF91CF9109
:100A80000C94AC0480620E94AC048BE496E4019761
:100A9000F1F780913E0280620E94AC0483E592E00F
:100AA0000197F1F780913E0280620E94AC04D0CFA2
:100AB00090914202691710F06FEF690FE62FF0E096
:100AC000E15DFD4F9489890F80680C94AC0441E08E
:100AD0000E94590481E090E00895FB0101900020FC
:100AE000E9F73197AF01461B570BDC01ED91FC9103
:100AF0000280F381E02D09944F925F926F927F9272
:100B00008F929F92AF92BF92CF92DF92EF92FF921D
:100B10000F931F93CF93DF93CDB7DEB7A1970FB697
:100B2000F894DEBF0FBECDBF8C016B01770FEE08CE
:100B3000FF08F7FE49C0DC01ED91FC910190F081C6
:100B4000E02D6DE209955C0122273327A9012C19BC
:100B50003D094E095F0919A2FE01B1967F019AE095
:100B6000492E512C612C712CCA01B901A3019201AB
:100B70000E945409605DD7016E937D0121153105F6
:100B80004105510589F790E080E0109721F0BD0103
:100B9000C8010E946D058A0D9B1DA1960FB6F894A1
:100BA000DEBF0FBECDBFDF91CF911F910F91FF90A0
:100BB000EF90DF90CF90BF90AF909F908F907F90FD
:100BC0006F905F904F900895A701960119A2FE01C2
:100BD000B1967F018AE0882E912CA12CB12CCA01FC
:100BE000B901A50194010E945409605DD7016E937B
:100BF0007D01211531054105510589F790E080E01F
:100C0000109759F2BD01C8010E946D05C6CF0C9422
:100C10006D051F920F920FB60F9211242F933F93E1
:100C20004F935F936F937F938F939F93AF93BF93F4
:100C3000EF93FF9382E991E00E940A01FF91EF9107
:100C4000BF91AF919F918F917F916F915F914F91E4
:100C50003F912F910F900FBE0F901F9018951F92EC
:100C60000F920FB60F9211242F938F939F93EF93B0
:100C7000FF93E091A201F091A3018081E091A8018E
:100C8000F091A90182FD1BC090818091AB018F5F23
:100C90008F732091AC01821741F0E091AB01F0E03D
:100CA000EE56FE4F958F8093AB01FF91EF919F9190
:100CB0008F912F910F900FBE0F901F9018958081EC
:100CC000F4CF1F920F920FB60F9211242F933F93E0
:100CD0008F939F93AF93BF938091870190918801E9
:100CE000A0918901B0918A013091860123E0230F00
:100CF0002D3758F50196A11DB11D209386018093D3
:100D0000870190938801A0938901B0938A01809113
:100D1000820190918301A0918401B0918501019697
:100D2000A11DB11D8093820190938301A093840142
:100D3000B0938501BF91AF919F918F913F912F917A
:100D40000F900FBE0F901F90189526E8230F029664
:100D5000A11DB11DD2CFE2E9F1E01382128288EE2B
:100D600093E0A0E0B0E084839583A683B78380E11D
:100D700091E09183808385EC90E09587848784EC73
:100D800090E09787868780EC90E0918B808B81EC58
:100D900090E0938B828B82EC90E0958B848B86EC39
:100DA00090E0978B868B118E128E138E148EEFE24D
:100DB000F2E01382128282E291E0918380838AE0E2
:100DC00084838FEF858389E0868384E0878385E051
:100DD000808786E0818787E0828713861486158660
:100DE0001686178681E00C94B204789484B58260EC
:100DF00084BD84B5816084BD85B5826085BD85B5BF
:100E0000816085BD80916E00816080936E0010923C
:100E100081008091810082608093810080918100B7
:100E20008160809381008091800081608093800048
:100E30008091B10084608093B1008091B0008160A6
:100E40008093B00080917A00846080937A008091D2
:100E50007A00826080937A0080917A00816080932A
:100E60007A0080917A00806880937A001092C100A5
:100E7000E091A201F091A30182E08083E0919E01C4
:100E8000F0919F011082E091A001F091A1018FECFF
:100E900080831092AA01E091A601F091A701C6E01B
:100EA000C083E091A401F091A501808180618083DD
:100EB000E091A401F091A501808188608083E09198
:100EC000A401F091A501808180688083E091A40154
:100ED000F091A50180818F7D808382E00E94B20421
:100EE00083E3809391018CE0809390018EE1809365
:100EF0008F01C0938D0110928C0110928B0122EB17
:100F000037E080E8C82E82E4D82E8DEDE82E8FE5FC
:100F1000F82EE4E6F0E0C0E9D1E0C901837099273A
:100F2000892B99F4C901BF010E94280B892B31F448
:100F3000C901BE010E94280B892B39F480E8C80E34
:100F400081E5D81E81E0E81EF11C2F5F3F4F253E52
:100F500087E0380711F7E0E0F1E0CBE0D1E0A191C4
:100F6000B0E020E831E541E050E00E944909C60EBA
:100F7000D71EE81EF91ECE17DF0789F7C701B60195
:100F800060527047894D9F4F0E945B0260E08FE086
:100F90000E94140260E08EE00E94140261E08CE086
:100FA0000E94140261E083E00E94140260E088E085
:100FB0000E941402C0E0D0E060E080E00E9458058A
:100FC0000E94E603BC018FE292E00E947C056AE287
:100FD00071E08FE292E00E94070660E086E00E94E6
:100FE00058050E94FF03BC018FE292E00E947C053D
:100FF0006FE271E082E991E00E9407060E94FF0320
:10100000BC0182E991E00E947C0564E371E082E921
:1010100091E00E946D0567E371E08FE292E00E942B
:10102000070660E08CE00E9458050E94C201892BEF
:1010300009F074C06BE371E082E991E00E946D05F4
:1010400064E371E082E991E00E946D0560E471E083
:101050008FE292E00E9407060E94DE03BC0182E953
:1010600091E00E947C056EE471E082E991E00E94CB
:1010700007060E94D603BC0182E991E00E947C052C
:101080006EE471E082E991E00E9407060E94CE03BF
:10109000BC0182E991E00E947C0564E371E082E991
:1010A00091E00E946D0561E080E00E9458050E9479
:1010B000DE03BC018FE292E00E947C050E94D60311
:1010C0007C016EE471E08FE292E00E9407068AE004
:1010D000E816F10434F441E060E38FE292E00E940C
:1010E0005904B7018FE292E00E947C050E94DE0362
:1010F0000B972CF40E94DE0360E006972CF40E940C
:10110000DE030697FCF461E083E00E94E60160E5FF
:1011100071E08FE292E00E94070622C00E94C201A5
:10112000019709F099CF65E471E082E991E00E94AE
:101130006D0564E371E082E991E00E946D0569E468
:1011400071E086CF0E94DE030C97CCF56AE571E072
:101150008FE292E00E94070661E083E00E94E601D0
:101160000E94E60385970CF45AC00E94FF0344973F
:101170000CF045C00E94C201019709F065C00E94B1
:10118000DE03069739F50E94D603892B19F50E94D4
:10119000CE0318161906F4F40E94CE030497D4F473
:1011A00060E08CE00E94E601209709F405CF0E94E0
:1011B000F600882309F400CF0E940000FDCE0E94B3
:1011C000DE0340971CF660E083E00E94E60164E6DF
:1011D00071E09FCF0E94DE03069799F00E94DE0324
:1011E000429769F40E94D603892B49F40E94CE03EA
:1011F0001816190624F40E94CE0304978CF261E0BD
:10120000D0CF0E94D6034E9749F70E94CE031816FE
:10121000190624F70E94CE03049704F7C1CF0E9459
:10122000E60385970CF60E94FF03429744F70E945D
:10123000C201019749F40E94DE03069779F60E94E5
:10124000D603892B59F6E1CF0E94C201892B09F000
:10125000ABCFD5CF052E97FB1EF400940E94410919
:1012600057FD07D00E94540907FC03D04EF40C949C
:10127000410950954095309521953F4F4F4F5F4F15
:10128000089590958095709561957F4F8F4F9F4FF2
:1012900008950E947609A59F900DB49F900DA49F7C
:1012A000800D911D11240895A1E21A2EAA1BBB1BCB
:1012B000FD010DC0AA1FBB1FEE1FFF1FA217B30722
:1012C000E407F50720F0A21BB30BE40BF50B661F38
:1012D000771F881F991F1A9469F7609570958095FC
:1012E00090959B01AC01BD01CF010895A29FB00173
:1012F000B39FC001A39F700D811D1124911DB29F4A
:10130000700D811D1124911D08950E9499090C945E
:10131000810A0E947A0A58F00E94730A40F029F468
:101320005F3F29F00C946A0A51110C94B50A0C9491
:10133000700A0E94920A68F39923B1F3552391F33E
:10134000951B550BBB27AA2762177307840738F034
:101350009F5F5F4F220F331F441FAA1FA9F335D091
:101360000E2E3AF0E0E832D091505040E695001C45
:10137000CAF72BD0FE2F29D0660F771F881FBB1FFF
:10138000261737074807AB07B0E809F0BB0B802DDD
:10139000BF01FF2793585F4F3AF09E3F510578F009
:1013A0000C946A0A0C94B50A5F3FE4F3983ED4F3B8
:1013B000869577956795B795F7959F5FC9F7880FDD
:1013C000911D9695879597F90895E1E0660F771F2F
:1013D000881FBB1F621773078407BA0720F0621BC0
:1013E000730B840BBA0BEE1F88F7E09508950E94EB
:1013F000FE096894B1110C94B50A08950E949A0AE6
:1014000088F09F5798F0B92F9927B751B0F0E1F0C5
:10141000660F771F881F991F1AF0BA95C9F714C075
:10142000B13091F00E94B40AB1E008950C94B40A6E
:10143000672F782F8827B85F39F0B93FCCF38695AE
:1014400077956795B395D9F73EF49095809570950B
:1014500061957F4F8F4F9F4F0895E89409C097FB88
:101460003EF490958095709561957F4F8F4F9F4F7B
:101470009923A9F0F92F96E9BB279395F6958795BF
:1014800077956795B795F111F8CFFAF4BB0F11F482
:1014900060FF1BC06F5F7F4F8F4F9F4F16C0882329
:1014A00011F096E911C0772321F09EE8872F762F5F
:1014B00005C0662371F096E8862F70E060E02AF0A0
:1014C0009A95660F771F881FDAF7880F969587958C
:1014D00097F9089597F99F6780E870E060E00895B4
:1014E0009FEF80EC089500240A941616170618063C
:1014F0000906089500240A94121613061406050618
:101500000895092E0394000C11F4882352F0BB0FA8
:1015100040F4BF2B11F460FF04C06F5F7F4F8F4F0B
:101520009F4F089557FD9058440F551F59F05F3F46
:1015300071F04795880F97FB991F61F09F3F79F0F5
:1015400087950895121613061406551FF2CF469577
:10155000F1DF08C0161617061806991FF1CF8695F9
:101560007105610508940895E894BB2766277727DD
:10157000CB0197F908950E94CE0A0C94810A0E942B
:10158000730A38F00E947A0A20F0952311F00C9427
:101590006A0A0C94700A11240C94B50A0E94920AEB
:1015A00070F3959FC1F3950F50E0551F629FF001B6
:1015B000729FBB27F00DB11D639FAA27F00DB11DCF
:1015C000AA1F649F6627B00DA11D661F829F222758
:1015D000B00DA11D621F739FB00DA11D621F839FDF
:1015E000A00D611D221F749F3327A00D611D231FB5
:1015F000849F600D211D822F762F6A2F11249F5703
:1016000050409AF0F1F088234AF0EE0FFF1FBB1F05
:10161000661F771F881F91505040A9F79E3F5105C4
:1016200080F00C946A0A0C94B50A5F3FE4F3983E8C
:10163000D4F3869577956795B795F795E7959F5F6E
:10164000C1F7FE2B880F911D9695879597F9089500
:1016500097FB072E16F4009407D077FD09D00E945F
:101660003C0B07FC05D03EF4909581959F4F089563
:10167000709561957F4F0895AA1BBB1B51E107C070
:10168000AA1FBB1FA617B70710F0A61BB70B881F12
:10169000991F5A95A9F780959095BC01CD010895A1
:1016A000EE0FFF1F0590F491E02D0994F894FFCF01
:1016B0001F1C1F1E1F1E1F1F1E1F1E1F00000000BD
:1016C0002C018C00B9007901EA00C800DC000000A0
:1016D000000067058C005802570243207C20004D13
:1016E000203D20000D0A00257C20007261696E00FB
:1016F0005261696E006472790020447279003A0088
:1017000020204D6F726E696E670020204576656EF1
:10171000696E67002041667465726E6F6F6E0000BF
:107E0000112484B714BE81FFF0D085E080938100F7
:107E100082E08093C00088E18093C10086E0809377
:107E2000C20080E18093C4008EE0C9D0259A86E02C
:107E300020E33CEF91E0309385002093840096BBD3
:107E4000B09BFECF1D9AA8958150A9F7CC24DD24C4
:107E500088248394B5E0AB2EA1E19A2EF3E0BF2EE7
:107E6000A2D0813461F49FD0082FAFD0023811F036
:107E7000013811F484E001C083E08DD089C08234E0
:107E800011F484E103C0853419F485E0A6D080C0E4
:107E9000853579F488D0E82EFF2485D0082F10E0AE
:107EA000102F00270E291F29000F111F8ED06801E7
:107EB0006FC0863521F484E090D080E0DECF843638
:107EC00009F040C070D06FD0082F6DD080E0C81688
:107ED00080E7D80618F4F601B7BEE895C0E0D1E017
:107EE00062D089930C17E1F7F0E0CF16F0E7DF06D8
:107EF00018F0F601B7BEE89568D007B600FCFDCFD4
:107F0000A601A0E0B1E02C9130E011968C91119780
:107F100090E0982F8827822B932B1296FA010C0160
:107F200087BEE89511244E5F5F4FF1E0A038BF0790
:107F300051F7F601A7BEE89507B600FCFDCF97BE46
:107F4000E89526C08437B1F42ED02DD0F82E2BD052
:107F50003CD0F601EF2C8F010F5F1F4F84911BD097
:107F6000EA94F801C1F70894C11CD11CFA94CF0C13
:107F7000D11C0EC0853739F428D08EE10CD085E9AC
:107F80000AD08FE07ACF813511F488E018D01DD067
:107F900080E101D065CF982F8091C00085FFFCCF94
:107FA0009093C60008958091C00087FFFCCF809118
:107FB000C00084FD01C0A8958091C6000895E0E648
:107FC000F0E098E1908380830895EDDF803219F02E
:107FD00088E0F5DFFFCF84E1DECF1F93182FE3DFCA
:107FE0001150E9F7F2DF1F91089580E0E8DFEE27F6
:047FF000FF270994CA
:027FFE00040479
:0400000300007E007B
:00000001FF
